{
  "contractName": "Payment",
  "abi": [
    {
      "inputs": [
        {
          "internalType": "uint256",
          "name": "",
          "type": "uint256"
        },
        {
          "internalType": "uint256",
          "name": "",
          "type": "uint256"
        }
      ],
      "name": "bal",
      "outputs": [
        {
          "internalType": "uint256",
          "name": "",
          "type": "uint256"
        }
      ],
      "stateMutability": "view",
      "type": "function",
      "constant": true
    },
    {
      "inputs": [
        {
          "internalType": "uint256",
          "name": "",
          "type": "uint256"
        },
        {
          "internalType": "uint256",
          "name": "",
          "type": "uint256"
        }
      ],
      "name": "edges",
      "outputs": [
        {
          "internalType": "uint256",
          "name": "",
          "type": "uint256"
        }
      ],
      "stateMutability": "view",
      "type": "function",
      "constant": true
    },
    {
      "inputs": [
        {
          "internalType": "uint256",
          "name": "",
          "type": "uint256"
        }
      ],
      "name": "nodes",
      "outputs": [
        {
          "internalType": "string",
          "name": "user_name",
          "type": "string"
        },
        {
          "internalType": "uint256",
          "name": "user_id",
          "type": "uint256"
        }
      ],
      "stateMutability": "view",
      "type": "function",
      "constant": true
    },
    {
      "inputs": [],
      "name": "success",
      "outputs": [
        {
          "internalType": "uint256",
          "name": "",
          "type": "uint256"
        }
      ],
      "stateMutability": "view",
      "type": "function",
      "constant": true
    },
    {
      "inputs": [
        {
          "internalType": "uint256",
          "name": "user_id",
          "type": "uint256"
        },
        {
          "internalType": "string",
          "name": "user_name",
          "type": "string"
        }
      ],
      "name": "registerUser",
      "outputs": [],
      "stateMutability": "nonpayable",
      "type": "function"
    },
    {
      "inputs": [
        {
          "internalType": "uint256",
          "name": "user_id1",
          "type": "uint256"
        },
        {
          "internalType": "uint256",
          "name": "user_id2",
          "type": "uint256"
        },
        {
          "internalType": "uint256",
          "name": "balance",
          "type": "uint256"
        }
      ],
      "name": "createAcc",
      "outputs": [],
      "stateMutability": "nonpayable",
      "type": "function"
    },
    {
      "inputs": [
        {
          "internalType": "uint256",
          "name": "user_id1",
          "type": "uint256"
        },
        {
          "internalType": "uint256",
          "name": "user_id2",
          "type": "uint256"
        }
      ],
      "name": "sendAmount",
      "outputs": [],
      "stateMutability": "nonpayable",
      "type": "function"
    },
    {
      "inputs": [],
      "name": "check_success",
      "outputs": [
        {
          "internalType": "uint256",
          "name": "",
          "type": "uint256"
        }
      ],
      "stateMutability": "view",
      "type": "function",
      "constant": true
    },
    {
      "inputs": [
        {
          "internalType": "uint256",
          "name": "user_id1",
          "type": "uint256"
        },
        {
          "internalType": "uint256",
          "name": "user_id2",
          "type": "uint256"
        }
      ],
      "name": "closeAccount",
      "outputs": [],
      "stateMutability": "nonpayable",
      "type": "function"
    }
  ],
  "bytecode": "0x6080604052600061283c5534801561001657600080fd5b50611141806100266000396000f3fe608060405234801561001057600080fd5b50600436106100935760003560e01c806370cfc9de1161006657806370cfc9de1461011f578063a3bee7491461014f578063b54834811461016d578063bd45d6eb14610189578063ea0dfa20146101a557610093565b80630b93381b146100985780631c53c280146100b65780631c57333e146100e75780635db9506e14610103575b600080fd5b6100a06101d5565b6040516100ad91906109b3565b60405180910390f35b6100d060048036038101906100cb9190610a0e565b6101dc565b6040516100de929190610acb565b60405180910390f35b61010160048036038101906100fc9190610c30565b61028e565b005b61011d60048036038101906101189190610c8c565b6102e2565b005b61013960048036038101906101349190610c8c565b6107e5565b60405161014691906109b3565b60405180910390f35b610157610819565b60405161016491906109b3565b60405180910390f35b61018760048036038101906101829190610ccc565b610824565b005b6101a3600480360381019061019e9190610c8c565b610903565b005b6101bf60048036038101906101ba9190610c8c565b61096b565b6040516101cc91906109b3565b60405180910390f35b61283c5481565b600081606481106101ec57600080fd5b6002020160009150905080600001805461020590610d4e565b80601f016020809104026020016040519081016040528092919081815260200182805461023190610d4e565b801561027e5780601f106102535761010080835404028352916020019161027e565b820191906000526020600020905b81548152906001019060200180831161026157829003601f168201915b5050505050908060010154905082565b604051806040016040528082815260200183815250600083606481106102b7576102b6610d7f565b5b6002020160008201518160000190816102d09190610f5a565b50602082015181600101559050505050565b6000606467ffffffffffffffff8111156102ff576102fe610b05565b5b60405190808252806020026020018201604052801561032d5781602001602082028036833780820191505090505b5090506000606467ffffffffffffffff81111561034d5761034c610b05565b5b60405190808252806020026020018201604052801561037b5781602001602082028036833780820191505090505b5090506000606467ffffffffffffffff81111561039b5761039a610b05565b5b6040519080825280602002602001820160405280156103c95781602001602082028036833780820191505090505b50905060005b606481101561042d5760008282815181106103ed576103ec610d7f565b5b602002602001018181525050606483828151811061040e5761040d610d7f565b5b60200260200101818152505080806104259061105b565b9150506103cf565b506000806000600184898151811061044857610447610d7f565b5b6020026020010181815250508786838151811061046857610467610d7f565b5b602002602001018181525050818061047f9061105b565b9250505b818310156107d15785838151811061049e5761049d610d7f565b5b6020026020010151905082806104b39061105b565b9350508681036105d85760008790505b60648682815181106104d8576104d7610d7f565b5b6020026020010151146105c357600161012c82606481106104fc576104fb610d7f565b5b6064020187838151811061051357610512610d7f565b5b60200260200101516064811061052c5761052b610d7f565b5b01600082825461053c91906110a3565b92505081905550600161012c87838151811061055b5761055a610d7f565b5b60200260200101516064811061057457610573610d7f565b5b60640201826064811061058a57610589610d7f565b5b01600082825461059a91906110d7565b925050819055508581815181106105b4576105b3610d7f565b5b602002602001015190506104c3565b600161283c81905550505050505050506107e1565b60005b60c882606481106105ef576105ee610d7f565b5b01805490508110156107cb57600061012c836064811061061257610611610d7f565b5b6064020160c8846064811061062a57610629610d7f565b5b01838154811061063d5761063c610d7f565b5b90600052602060002001546064811061065957610658610d7f565b5b015403156107b85760008560c8846064811061067857610677610d7f565b5b01838154811061068b5761068a610d7f565b5b9060005260206000200154815181106106a7576106a6610d7f565b5b6020026020010151036107b75760018560c884606481106106cb576106ca610d7f565b5b0183815481106106de576106dd610d7f565b5b9060005260206000200154815181106106fa576106f9610d7f565b5b602002602001018181525050818660c8846064811061071c5761071b610d7f565b5b01838154811061072f5761072e610d7f565b5b90600052602060002001548151811061074b5761074a610d7f565b5b60200260200101818152505060c8826064811061076b5761076a610d7f565b5b01818154811061077e5761077d610d7f565b5b906000526020600020015487848151811061079c5761079b610d7f565b5b60200260200101818152505082806107b39061105b565b9350505b5b80806107c39061105b565b9150506105db565b50610483565b600061283c819055505050505050505b5050565b60c882606481106107f557600080fd5b01818154811061080457600080fd5b90600052602060002001600091509150505481565b600061283c54905090565b60c8836064811061083857610837610d7f565b5b018290806001815401808255809150506001900390600052602060002001600090919091909150558061012c846064811061087657610875610d7f565b5b60640201836064811061088c5761088b610d7f565b5b018190555060c882606481106108a5576108a4610d7f565b5b018390806001815401808255809150506001900390600052602060002001600090919091909150558061012c83606481106108e3576108e2610d7f565b5b6064020184606481106108f9576108f8610d7f565b5b0181905550505050565b600061012c836064811061091a57610919610d7f565b5b6064020182606481106109305761092f610d7f565b5b0181905550600061012c826064811061094c5761094b610d7f565b5b60640201836064811061096257610961610d7f565b5b01819055505050565b61012c826064811061097c57600080fd5b60640201816064811061098e57600080fd5b01600091509150505481565b6000819050919050565b6109ad8161099a565b82525050565b60006020820190506109c860008301846109a4565b92915050565b6000604051905090565b600080fd5b600080fd5b6109eb8161099a565b81146109f657600080fd5b50565b600081359050610a08816109e2565b92915050565b600060208284031215610a2457610a236109d8565b5b6000610a32848285016109f9565b91505092915050565b600081519050919050565b600082825260208201905092915050565b60005b83811015610a75578082015181840152602081019050610a5a565b60008484015250505050565b6000601f19601f8301169050919050565b6000610a9d82610a3b565b610aa78185610a46565b9350610ab7818560208601610a57565b610ac081610a81565b840191505092915050565b60006040820190508181036000830152610ae58185610a92565b9050610af460208301846109a4565b9392505050565b600080fd5b600080fd5b7f4e487b7100000000000000000000000000000000000000000000000000000000600052604160045260246000fd5b610b3d82610a81565b810181811067ffffffffffffffff82111715610b5c57610b5b610b05565b5b80604052505050565b6000610b6f6109ce565b9050610b7b8282610b34565b919050565b600067ffffffffffffffff821115610b9b57610b9a610b05565b5b610ba482610a81565b9050602081019050919050565b82818337600083830152505050565b6000610bd3610bce84610b80565b610b65565b905082815260208101848484011115610bef57610bee610b00565b5b610bfa848285610bb1565b509392505050565b600082601f830112610c1757610c16610afb565b5b8135610c27848260208601610bc0565b91505092915050565b60008060408385031215610c4757610c466109d8565b5b6000610c55858286016109f9565b925050602083013567ffffffffffffffff811115610c7657610c756109dd565b5b610c8285828601610c02565b9150509250929050565b60008060408385031215610ca357610ca26109d8565b5b6000610cb1858286016109f9565b9250506020610cc2858286016109f9565b9150509250929050565b600080600060608486031215610ce557610ce46109d8565b5b6000610cf3868287016109f9565b9350506020610d04868287016109f9565b9250506040610d15868287016109f9565b9150509250925092565b7f4e487b7100000000000000000000000000000000000000000000000000000000600052602260045260246000fd5b60006002820490506001821680610d6657607f821691505b602082108103610d7957610d78610d1f565b5b50919050565b7f4e487b7100000000000000000000000000000000000000000000000000000000600052603260045260246000fd5b60008190508160005260206000209050919050565b60006020601f8301049050919050565b600082821b905092915050565b600060088302610e107fffffffffffffffffffffffffffffffffffffffffffffffffffffffffffffffff82610dd3565b610e1a8683610dd3565b95508019841693508086168417925050509392505050565b6000819050919050565b6000610e57610e52610e4d8461099a565b610e32565b61099a565b9050919050565b6000819050919050565b610e7183610e3c565b610e85610e7d82610e5e565b848454610de0565b825550505050565b600090565b610e9a610e8d565b610ea5818484610e68565b505050565b5b81811015610ec957610ebe600082610e92565b600181019050610eab565b5050565b601f821115610f0e57610edf81610dae565b610ee884610dc3565b81016020851015610ef7578190505b610f0b610f0385610dc3565b830182610eaa565b50505b505050565b600082821c905092915050565b6000610f3160001984600802610f13565b1980831691505092915050565b6000610f4a8383610f20565b9150826002028217905092915050565b610f6382610a3b565b67ffffffffffffffff811115610f7c57610f7b610b05565b5b610f868254610d4e565b610f91828285610ecd565b600060209050601f831160018114610fc45760008415610fb2578287015190505b610fbc8582610f3e565b865550611024565b601f198416610fd286610dae565b60005b82811015610ffa57848901518255600182019150602085019450602081019050610fd5565b868310156110175784890151611013601f891682610f20565b8355505b6001600288020188555050505b505050505050565b7f4e487b7100000000000000000000000000000000000000000000000000000000600052601160045260246000fd5b60006110668261099a565b91507fffffffffffffffffffffffffffffffffffffffffffffffffffffffffffffffff82036110985761109761102c565b5b600182019050919050565b60006110ae8261099a565b91506110b98361099a565b92508282019050808211156110d1576110d061102c565b5b92915050565b60006110e28261099a565b91506110ed8361099a565b92508282039050818111156111055761110461102c565b5b9291505056fea2646970667358221220f04d9e7666edaea7b0186b7f3fbee1a59d7566faad984aadd41cd37675bff6c064736f6c63430008130033",
  "immutableReferences": {},
  "source": "// SPDX-License-Identifier: MIT\npragma solidity >=0.4.22 <0.9.0;\n\ncontract Payment {\n  struct node {\n    string user_name; \n    uint user_id; \n  }\n\n  node[100] public nodes; // List of nodes present in the network\n  uint[][100] public edges; // Adjacency List - dynamic list to speed up bfs \n  uint[100][100] public bal; // bal[i][j] represents the balance i has in (i,j) connection edge\n  uint public success = 0 ;\n\n  function registerUser(uint user_id, string memory user_name) public {\n    nodes[user_id] = node({user_name: user_name, user_id: user_id});\n  }\n\n  function createAcc(uint user_id1, uint user_id2, uint balance) public {\n    edges[user_id1].push(user_id2) ;\n    bal[user_id1][user_id2] = balance ;\n    edges[user_id2].push(user_id1) ;\n    bal[user_id2][user_id1] = balance ;\n  }\n\n  function sendAmount(uint user_id1, uint user_id2) public {\n\n    uint[] memory bfs_queue = new uint[](100); // bfs queue containing nodes to be explored\n    uint[] memory parent = new uint[](100); // parent of a node according to \n    uint[] memory explored = new uint[](100);\n\n    for (uint i=0; i<100; i++) {\n      explored[i] = 0;\n      parent[i] = 100 ;\n    }\n\n    uint start = 0;\n    uint end = 0;\n    uint head ;\n\n    explored[user_id1] = 1;\n    bfs_queue[end] = user_id1; \n    end++;\n    \n    while(start<end)\n    {\n      head = bfs_queue[start];\n      start++;\n    \n      if (head==user_id2){ // there is a path to user_id2\n        uint x = user_id2 ;\n\n        while(parent[x] != 100) {\n          // change balances on path edges\n          bal[x][parent[x]] += 1 ; \n          bal[parent[x]][x] -= 1 ;\n          x = parent[x] ;\n        }\n        success = 1 ;\n        return ;\n      }\n      else{\n        for(uint i=0; i<edges[head].length; i++)\n        {\n          // if edge does not exist between user_id and i\n          if (bal[head][edges[head][i]] == 0) continue;\n\n          // if edge exists and is unexplored\n          if(explored[edges[head][i]]==0)\n          { \n            explored[edges[head][i]]=1;\n            parent[edges[head][i]] = head ;\n    \n            bfs_queue[end] = edges[head][i];\n            end++;\n          }\n        }\n      }\n    }\n    success = 0 ;\n    return ;\n  }\n\n  // check if the previous transaction was successful\n  function check_success() public view returns (uint) {\n    return success ;\n  }\n\n  function closeAccount(uint user_id1, uint user_id2) public {\n    bal[user_id1][user_id2] = 0;\n    bal[user_id2][user_id1] = 0;\n  }\n}\n",
  "sourcePath": "/Users/harshwardhanaggarwal/Downloads/HW3/contracts/Payment.sol",
  "compiler": {
    "name": "solc",
    "version": "0.8.19+commit.7dd6d404.Emscripten.clang"
  },
  "schemaVersion": "3.4.13",
  "updatedAt": "2023-04-16T11:25:05.220Z",
  "networkType": "ethereum",
  "devdoc": {
    "kind": "dev",
    "methods": {},
    "version": 1
  },
  "userdoc": {
    "kind": "user",
    "methods": {},
    "version": 1
  }
}